:020000040800F2
:10000000005000203D030008C1030008C1030008A0
:10001000C1030008C1030008C1030008000000007C
:10002000000000000000000000000000C103000804
:10003000C103000800000000C1030008C10300085C
:10004000C1030008C1030008C1030008C103000880
:1000500000000000C1030008C1030008C10300083C
:10006000C1030008C1030008C1030008C103000860
:10007000C1030008C1030008C1030008C103000850
:10008000C1030008C1030008C1030008C103000840
:10009000C1030008C1030008C1030008C103000830
:1000A000C1030008C1030008C1030008C103000820
:1000B000C1030008C1030008C1030008C103000810
:1000C000C1030008C1030008C1030008C103000800
:1000D000C1030008C1030008C1030008C1030008F0
:1000E000C1030008C1030008C1030008C1030008E0
:1000F000C1030008C1030008C1030008C1030008D0
:10010000C1030008C1030008C1030008C1030008BF
:10011000C1030008C1030008C1030008C1030008AF
:10012000C1030008C1030008C1030008C10300089F
:10013000C1030008C1030008C1030008C10300088F
:10014000C1030008C1030008C1030008C10300087F
:10015000C1030008C1030008C1030008C10300086F
:10016000C1030008C1030008C1030008C10300085F
:10017000C1030008C1030008C1030008C10300084F
:10018000C1030008C103000880B400AF044B9B69A1
:10019000034A43F00803936100BFBD4680BC70472B
:1001A0000010024080B400AF074B5B68064A23F0A2
:1001B0000F035360044B5B68034A43F0030353602F
:1001C00000BFBD4680BC7047000C014080B400AF4A
:1001D000074B5B68064A23F0F0035360044B5B68EF
:1001E000034A43F03003536000BFBD4680BC7047F4
:1001F000000C014080B400AF074B5B68064A23F453
:1002000070635360044B5B68034A43F4407353606C
:1002100000BFBD4680BC7047000C014080B400AFF9
:10022000074B5B68064A23F470435360044B5B68DA
:10023000034A43F44053536000BFBD4680BC70473F
:10024000000C014080B483B000AF03460A46FB7146
:100250001346BB71BB79012B09D10C4BDA68FB79D2
:10026000012101FA03F309491343CB6009E0074B6D
:10027000DA68FB79012101FA03F3DB4303491340F8
:10028000CB6000BF0C37BD4680BC7047000C0140FE
:1002900080B400AF044BDB68034A83F48073D360FF
:1002A00000BFBD4680BC7047000C014080B400AF69
:1002B000044BDB68034A83F40073D36000BFBD4680
:1002C00080BC7047000C014080B400AF044BDB6879
:1002D000034A83F48063D36000BFBD4680BC70478F
:1002E000000C014080B400AF044BDB68034A83F488
:1002F0000063D36000BFBD4680BC7047000C014066
:1003000080B485B000AF78600023FB600CE0002370
:10031000BB6002E0BB680133BB60BA687B689A428D
:10032000F8D9FB680133FB60FB68642BEFD900BF91
:1003300000BF1437BD4680BC704700BF80B586B093
:1003400000AF1A4A1A4BD31A7B60194B7B61194BC9
:100350003B610023FB600AE03A69531C3B617B6907
:10036000591C796112781A70FB680133FB60FA68D6
:100370007B689A42F0D3104A104BD31A7B600F4B24
:100380007B610023BB6007E07B695A1C7A61002215
:100390001A70BB680133BB60BA687B689A42F3D3BA
:1003A00000F091F800BF1837BD4680BD0000002066
:1003B00000000020E40400080000002000000020ED
:1003C00080B400AFFEE700BF80B500AF0021082079
:1003D000FFF738FF00210920FFF734FF00210A2032
:1003E000FFF730FF00210B20FFF72CFF00BF80BD7F
:1003F00080B582B000AF0023FB710EE0FFF748FF2D
:10040000FFF754FFFFF760FFFFF76CFF42F2107039
:10041000FFF776FFFB790133FB71FB790A2BEDD9EE
:1004200001210820FFF70EFF01210920FFF70AFF35
:1004300001210A20FFF706FF01210B20FFF702FF31
:1004400047F23050FFF75CFF0023BB7133E000231D
:100450007B710DE07B790833DBB200211846FFF792
:10046000F1FE41F28830FFF74BFF7B7901337B715E
:100470007B79032BEED947F23050FFF741FF002381
:100480007B710EE07B79C3F10B03DBB201211846CF
:10049000FFF7D8FE41F28830FFF732FF7B79013356
:1004A0007B717B79032BEDD947F23050FFF728FFA2
:1004B000BB790133BB71BB79052BC8D900BF00BF25
:1004C0000837BD4680BD80B500AFFFF75DFEFFF782
:1004D00069FEFFF77BFEFFF78DFEFFF79FFEFFF73C
:0404E00087FFFCE7AF
:040000050800033DAF
:00000001FF
